:020000040800F2
:10000000702700209D010008032A00082F25000802
:10001000012A000873090008D1310008000000001F
:1000200000000000000000000000000005010008C2
:10003000CF0900080000000049010008BD2A00089F
:10004000B7010008B7010008B7010008B7010008B0
:10005000B7010008B7010008B7010008B7010008A0
:10006000B7010008B7010008B7010008B701000890
:10007000B7010008B70100087509000881090008E8
:100080008D09000899090008B7010008B7010008A8
:10009000B7010008B7010008B7010008B701000860
:1000A000B7010008492B0008B7010008B701000894
:1000B000552B0008612B0008B7010008B7010008A4
:1000C000B7010008B7010008B7010008B701000830
:1000D000B70100087931000895310008B701000820
:1000E000B7010008B7010008B7010008DFF810D019
:1000F00000F084FB00480047F9460008AFF3008099
:1001000070270020224B19680868B0E8F00F80F3D0
:100110000988BFF36F8F4FF0000080F311884EF015
:100120000D0E70470000000006480068006880F36C
:10013000088862B661B6BFF34F8FBFF36F8F00DFE1
:1001400000BF00BF08ED00E0EFF30980BFF36F8F41
:100150000F4B1A6820E9F00F106008B54FF05000FF
:1001600080F31188BFF34F8FBFF36F8F06F000FB52
:100170004FF0000080F31188BDE808401968086856
:10018000B0E8F00F80F30988BFF36F8F704700BFAE
:100190004C000020EFF305807047000006488047C0
:1001A00006480047FEE7FEE7FEE7FEE7FEE7FEE75C
:1001B000FEE7FEE7FEE7FEE7472B0008ED0000083C
:1001C000202A04DB203A21FA02F00021704721FAAC
:1001D00002F3D040C2F12002914008431946704713
:1001E00040EA01039B0703D009E008C9121F08C0B9
:1001F000042AFAD203E011F8013B00F8013B521E39
:10020000F9D27047D2B201E000F8012B491EFBD2AF
:1002100070470022F6E710B513460A460446194611
:10022000FFF7F0FF204610BD30B505462A460B46C5
:1002300012F8010B13F8014B08B1A042F8D01CB121
:10024000002802D06D1CF1E7284630BD421C10F892
:10025000011B0029FBD1801A704710B5002200E075
:10026000521C835C8C5CA34201D1002BF8D1D8B224
:10027000E1B2401A10BD30B505460020034600E04B
:100280005B1C934205D2EC5CC85C201A01D1002CA7
:10029000F6D130BD80EA010210B502F00043400003
:1002A00022D04A001FD0010E01EB1261C0F35600AC
:1002B000C2F3560240F4000042F40002A0FB022008
:1002C00000047F39140400D0401C50EA124001D4CD
:1002D0004000491EC2B20C0604EBD010401C40087E
:1002E000802A02D003E0002010BD20F00100002988
:1002F00000DA0020184310BD30B480EA010202F099
:10030000004530F0004221F0004013D090B1C30D01
:10031000D40DC2F31601C0F31600E41A41F4000133
:1003200040F400027D34914201D3641C00E0490096
:10033000002C02DA30BC002070474FF4000000238C
:10034000914201D3891A034340084FEA4101F7D192
:1003500051B1914202D14FF0004105E002D24FF07D
:10036000010101E06FF0010103EBC450284430BCEF
:1003700000F055B8C10F80EAE0700844CA07962320
:10038000002100F055B896230022114600F050B825
:1003900030B50B46014600202022012409E021FA55
:1003A00002F59D4205D303FA02F5491B04FA02F552
:1003B0002844151EA2F10102F1DC30BD2DE9F05FE9
:1003C0000546002092469B468846064681464024C4
:1003D0001BE02846414647462246FFF7F1FE5346BA
:1003E0005A46C01A914110D311461846224600F0D1
:1003F00017FA2D1A67EB01084F462246012000210B
:1004000000F00EFA17EB00094E41201EA4F1010482
:10041000DFDC484631462A464346BDE8F09F0029C6
:10042000A8BF7047401C490008BF20F0010070477A
:1004300010B4B0FA80FC00FA0CF050EA010404BFDA
:1004400010BC704749B1CCF1200421FA04F411FA30
:100450000CF118BF012121430843A3EB0C01CB1D74
:100460004FEA00614FEA102042BF002010BC7047E5
:1004700000EBC35010440029A4BF10BC7047401CBF
:10048000490008BF20F0010010BC70472DE9FE4F65
:10049000804681EA0300C00F0C46009021F0004125
:1004A00023F00045B8EB0200A94105D240462146A1
:1004B00090461C460B46024623F00040104347D0AE
:1004C000270DC7F30A00C3F30A510290401A0190A6
:1004D00040286BDAC3F3130040F4801B0098924667
:1004E00020B10023D2EB030A63EB0B0B01985946B2
:1004F000C0F14002504600F093F906460D465046C2
:100500005946019A00F09BF910EB08006141002464
:1005100087EA115284EAE7731A4340D0009A62B323
:10052000019A012A4FEA075215DC001B61EB020118
:100530004FF0004202EA0752CDE90042001C41F5AB
:10054000801132462B4600F09BF903B0BDE8F08FD6
:1005500040462146F9E7001B61EB0201001C41F512
:10056000801300185B412018A2F5001747EB030128
:1005700040EAD570B6196D4111E06D084FEA3606B4
:1005800045EAC0754FEA0752001B61EB0201001CEF
:1005900041F5801149084FEA3000001951413246B7
:1005A0002B4603B0BDE8F04F00F05BB90098012284
:1005B00040000023D0EB020263EBE0730098214679
:1005C0004FEAE074B8EB000061EB0401E9E783F067
:1005D00000435BE781F0004158E72DE9FE4F81EAD7
:1005E000030404F0004421F0004100944FF0000B9C
:1005F00023F0004350EA01045ED052EA03045BD0CA
:10060000C3F30A54C1F30A552C44A4F2F334019401
:10061000A0FB0254C1F3130141F48011C3F313038F
:1006200043F4801301FB024400FB034E840A970A43
:1006300044EA815447EA8357A4FB076802958D0A70
:1006400005FB07854FEA932C04FB0C542705029DFC
:100650004FEA065847EA1637B5EB08056EEB070C6C
:10066000870E920E47EA811742EA8312A7FB020126
:10067000B6EB0B0164EB00042B0D43EA0C335E1860
:1006800044EB1C50DA465146E7FB0201C5F3130464
:100690004FEA0B3343EA14534FEA0432019C43EA16
:1006A0000603A4F10C040294009CCDE900B400F010
:1006B000E7F803B0BDE8F08F00200146F9E72DE927
:1006C000F04D81EA030404F0004B21F0004514468C
:1006D0004FF0000A23F0004150EA050220D054EA0E
:1006E00001021DD0C5F30A570246C5F31303C1F337
:1006F0001300C1F30A5640F4801543F48013A7EBAE
:100700000608101BD64608F2FD3873EB050002D32D
:1007100008F1010801E092185B41B8F1000F03DA1B
:1007200000200146BDE8F08D00204FF48011064600
:1007300084460EE0171B73EB050705D3121B63EB12
:10074000050306434CEA010C49084FEA30009218B1
:100750005B4150EA0107EDD152EA030012D082EA70
:10076000040083EA0501084305D0101BAB4106D203
:100770000122002306E000224FF0004302E06FF068
:10078000010253101AEB06004CEB085110EB0A0063
:1007900041EB0B01BDE8F04D00F063B8C1F30A5224
:1007A000C1F3130140F2FF3341F480119A4202DA9F
:1007B00000200146704740F233439A42A2F233428E
:1007C00002DC5242FFF7FCBC00F02AB830B5041E30
:1007D00071F1000404DB4FF00044404264EB01017E
:1007E000141E73F1000405DB1C464FF00043524217
:1007F00063EB0403994208BF904230BD064C074D9D
:1008000006E0E06840F0010394E8070098471034E0
:10081000AC42F6D3FFF76EFC147A0008347A000875
:10082000202A04DB203A00FA02F1002070479140B0
:10083000C2F1200320FA03F3194390407047202AA5
:1008400006DBCB17203A41FA02F043EAE07306E0F8
:1008500041FA02F3D040C2F1200291400843194608
:10086000704710B5141E73F1000408DA401C41F102
:10087000000192185B411A4301D120F0010010BD24
:100880002DE9F04D92469B4611B1B1FA81F202E09A
:10089000B0FA80F220329046FFF7C2FF04460F46BE
:1008A00040EA0A0041EA0B0153465A46084313D076
:1008B000114653EA010019D0C8F140025046FFF733
:1008C0007FFC05460E46504659464246FFF7A8FFB4
:1008D000084305D0012004E020463946BDE8F08DEC
:1008E0000020054346EAE0762C4337430A98630527
:1008F000E40AA0EB08000022FD0A44EA47540A304B
:1009000002D500200146E9E7010510196941DDE93A
:10091000084500196941BDE8F04DA2E770B58C1893
:1009200010F8015B15F0070301D110F8013B2A1103
:1009300006D110F8012B03E010F8016B01F8016BF0
:100940005B1EF9D12B0705D40023521E0DD401F8EC
:10095000013BFAE710F8013BCB1A921C03E013F8B5
:10096000015B01F8015B521EF9D5A142D8D30020EA
:1009700070BDFEE7014800F0C3B800006406002027
:10098000014800F0BDB8000020060020014800F03A
:10099000B7B80000A8060020014800F0B1B8000078
:1009A000EC06002030B590F840500124AC40C56BF7
:1009B0006C60046863604368102B036803D099601F
:1009C0000068C26030BD9A600068C16030BD704789
:1009D00072B6FEE710B5040002D0607910B106E0EF
:1009E000012010BD00202071204600F005F80120F4
:1009F0006071002010BD000008B5006806498842FB
:100A000008D10648416941F040014161406900F068
:100A10004000009008BD000000300240001002407D
:100A200010B590F821100022022905D0042181631D
:100A300080F82020012010BD01680B6823F00E0310
:100A40000B6001680B6823F001030B6090F84030E5
:100A5000C46B012101FA03F3636080F8211080F870
:100A60002020104610BD000010B590F82110002481
:100A7000022903D00421816301243DE001680A6852
:100A800022F00E020A6001680A6822F001020A6080
:100A90001A4A0168914201D1012121E0174A14321A
:100AA000914201D110211BE0144A2832914201D118
:100AB000891515E0114A3C32914201D189140FE0A9
:100AC0000E4A5032914202D14FF4803108E00B4A75
:100AD0006432914202D14FF4801101E04FF08071F5
:100AE000064A083A5160012180F82110002180F85F
:100AF0002010416B01B18847204610BD080002401C
:100B00002DE9F05FC16B0C6801680B68D0F840C03C
:100B1000042202FA0CF2494DDFF824A1494E4A4F53
:100B2000DFF828B1DFF828E122422CD05A072AD575
:100B30000A68920603D40A6822F004020A60016877
:100B4000A94201D1042219E0514501D1402215E00A
:100B5000B14202D14FF4806210E0B94202D14FF4A9
:100B600080420BE0594502D14FF4802206E07145E6
:100B700002D14FF4800201E04FF080622F49083922
:100B80004A60C16A3BE04FF0020808FA0CF818EA24
:100B9000040F4FF000094FF0010235D05FEA83786F
:100BA00032D50B689B0605D40B6823F00A030B6053
:100BB00080F821200168A94201D1022219E05145A3
:100BC00001D1202215E0B14202D14FF4007210E0B1
:100BD000B94202D14FF400520BE0594502D14FF413
:100BE000003206E0714502D14FF4001201E04FF0EF
:100BF0000072124908394A6080F82090816A002901
:100C00001AD0BDE8F05F0847082505FA0CF5254223
:100C100012D01B0710D50B6823F00E030B6090F861
:100C20004010C36B02FA01F15960826380F8212001
:100C300080F82090016BE2E7BDE8F09F08000240D9
:100C40001C000240300002404400024058000240B4
:100C50006C00024030B528B308C813491422194467
:100C6000B1FBF2F18900C163104981630221417730
:100C70001A6843F6F0718A43D0E900142143D0E9A1
:100C800002452C432143046921434469214384697B
:100C9000214311431960002141630122427701770A
:100CA000084630BD012030BDF8FFFDBF0000024006
:100CB00070B5044690F82000002501280CD00120D2
:100CC00084F8200094F821600020012E06D084F8DA
:100CD00020000225284670BD022070BD022684F83F
:100CE0002160A0632068066826F0010606602046A1
:100CF000FFF758FEE06A00282068016802D041F042
:100D00000E0106E021F0040101602068016841F055
:100D10000A0101602068016841F001010160D9E722
:100D20002DE9F84FDFF8B8910024A9F1040B234610
:100D30000F2709F1040AABF1040EC9E00125A54013
:100D40002A40AA427DD1674ED1F804C0ACEB060818
:100D5000B44532D014DCBCF1030F3AD009DCBCF14D
:100D6000000F2AD0BCF1010F1CD0BCF1020F31D111
:100D70001DE0BCF1110F17D0BCF1120F2AD119E000
:100D8000B8F5881F19D006DCB8F5803F15D0B8F546
:100D9000801F1FD111E0B8F5001F0ED0B8F5041F59
:100DA00018D10AE0CB6815E0CB681B1D12E0CB68B8
:100DB00008330FE0CB680C330CE08B682BB1012BB0
:100DC0004FF0080303D0456104E0042302E005610D
:100DD00000E00023FF2A01D8064601E000F10406E6
:100DE0004FEA840501D9A5F12005D6F8008007FA5D
:100DF00005FC28EA0C0803FA05F548EA0508C6F8D8
:100E000000804D68ED0062D5374DAE6946F00106B1
:100E1000AE61AD6924F0030605F001050095334D80
:100E200006EB050CDCF80850A607360F07FA06F8A3
:100E300025EA0805DFF8B880404503D14FF00008E7
:100E400017E044E0DFF8AC80404502D14FF00108E4
:100E50000FE0DFF8A480404502D14FF0020808E01F
:100E6000DFF89880404502D14FF0030801E04FF0D1
:100E7000040808FA06F848EA0508CCF808804D6826
:100E8000D9F80060ED024D4601D5164300E09643C7
:100E90002E604D68DAF80060AD02554601D5164364
:100EA00000E096432E604D68DBF80060AD035D46C0
:100EB00001D5164300E096432E604D68DEF80060D1
:100EC000ED03754601D5164300E096432E60641C81
:100ED0000D682A46E5407FF431AFBDE8F88F000089
:100EE0000804014000001110001002400000014001
:100EF00000080140000C01400010014000140140B6
:100F0000C26821EA02030A4043EA024101617047D4
:100F10000AB1016170470904FBE7000001488068DD
:100F2000704700003000002070B5040025D094F810
:100F30003D00002520B984F83C50204600F0B8F868
:100F4000242084F83D002068016821F0010101603F
:100F50002068016841F4004101602068016821F4C3
:100F60000041016000F072FA4D4A6168914201D877
:100F70004C4900E04C49884201D2012070BD4B49E8
:100F80002368B0FBF1F15E6826F03F060E435E6019
:100F90006368934206D94FF4967359434FF47A73BA
:100FA000B1FBF3F12368491C1E6A26F03F0631436A
:100FB00019626168914210D84900401EB0FBF1F2FD
:100FC000521CC2F30B02042A01D2042022E0B0FB1F
:100FD000F1F0401CC0F30B001CE0A268F2B301EB7F
:100FE000C10303EB0116431EB3FBF6F35B1C43F492
:100FF00080431B0549D092B301EBC10202EB011102
:10100000401EB0FBF1F0401CC0F30B0040F48040E8
:1010100040F400402168CA694CF6FF739A431043BC
:10102000C861D4E9071001432068026822F0C002B9
:1010300011430160D4E9030101432068826848F24A
:10104000FF339A4311438160D4E9050108432168C5
:10105000CA6822F0FF021043C86001E00EE016E00B
:101060002068016841F0010101602564202084F8B6
:101070003D00256384F83E50002070BD01EB410621
:10108000431EB3FBF6F35B1CB3E70120C2E701EBA1
:101090004101401EB0FBF1F0401CC0F30B00B7E76C
:1010A000A086010080841E0000093D0040420F0020
:1010B00030B585B000210091019102910391214D3D
:1010C0000368214C122103222048AB421DD1A369A1
:1010D00043F00803A361A369039203F00803049398
:1010E0001302CDE900316946FFF71AFE184841683E
:1010F00041F0E06141F002014160E06940F400101C
:10110000E061E06900F4001019E0124DAB4217D124
:10111000A36943F00803A361A369039203F00803E2
:1011200004934FF44063CDE900316946FFF7F8FDC1
:10113000E06940F48000E061E06900F48000049020
:1011400005B030BD0054004000100240000C0140CA
:1011500000000140005800400248816802781144B4
:101160008160704730000020074810B5016841F0E9
:1011700010010160032000F0A1F80F2000F006F834
:1011800000F04AF8002010BD0020024030B50546AE
:101190001C4887B0816941F400618161806906A9BA
:1011A00000F40060009001A800F030F900F05EF952
:1011B0001549164AB0FBF1F11548491E026041601D
:1011C00040F2E7320021C0E903218160816100F033
:1011D000FBFB040012D10E4800F054FC04000DD1BA
:1011E000192000F03DF8102D07D2002229461920C1
:1011F00000F044F80748056000E0012407B02046ED
:1012000030BD00000010024040420F00002C0140A1
:1012100030070020340000200F4808B5816941F0F4
:1012200001018161816901F001010091C16941F011
:101230008051C161C069002200F0805000900F21F0
:10124000901E00F01BF80548416821F0E06141F074
:101250000071416008BD0000001002400000014024
:10126000002809DB00F01F020121914040098000A5
:1012700000F1E020C0F8001170470000F0B40E4B00
:101280001B680C46C3F30223C3F10705042D00D9E4
:101290000425191D072901D2002300E0DB1E0126C9
:1012A00006FA05F1491E214099409E40761E1640DF
:1012B0003143F0BC02F014B80CED00E0064900F038
:1012C000070208684FF6FF03184040EA0220034A6D
:1012D00010430860704700000CED00E00000FA05C4
:1012E0002DE9F0470F46050061D0434E306800F00D
:1012F0000700B84209D2306820F007003843306058
:10130000306800F00700B84251D128683B4C810793
:1013100012D5400703D5606840F4E060606028782B
:10132000000703D5606840F4605060606068A96899
:1013300020F0F000084360602878C00728D0686873
:10134000012810D02168022810D0890700292EDA40
:10135000616821F0030101436160FFF7DFFD804612
:1013600041F288390DE021688903EFE78901EDE753
:10137000FFF7D4FDA0EB0801494502D90320BDE8E1
:10138000F0876068696800F00C00B0EB810FEFD166
:10139000306800F00700B8420BD9306820F0070031
:1013A00038433060306800F00700B84201D00120B7
:1013B000E5E72878400705D56068E96820F4E06033
:1013C000084360602878000706D56068296920F422
:1013D000605040EAC100606000F058F86168084A57
:1013E000C1F30311515CC840064908600648006813
:1013F000FFF7CCFE0020C2E70020024000100240B0
:10140000B67400083C000020340000200F22026067
:101410000C4A536803F003034360536803F0F0037E
:101420008360536803F4E063C36052684FF4E06381
:1014300003EAD20202610448006800F00700086075
:101440007047000000100240002002400448054997
:1014500000684968044AC1F30221515CC8407047E2
:101460003C00002000100240C674000804480549F2
:1014700000684968044AC1F3C221515CC840704702
:101480003C00002000100240C67400080E4A51685B
:101490000E4801F00C03042B11D0082B0FD10C487F
:1014A000C1F38343C903C05C0AD55168084AC1F33C
:1014B0004041921E515C054A5043B0FBF1F0704729
:1014C00004494843704700000010024000127A00AF
:1014D000A674000800093D002DE9F84F040070D003
:1014E0002078C04DC00749D06868C0F3810001284A
:1014F00007D06868C0F38100022809D16868C0037A
:1015000006D52868800339D560680028E7D035E023
:101510006068B0F5803F0BD010B1B0F5A02F11D0AE
:10152000286820F480302860286820F4802002E0B9
:10153000286840F480302860606890B1FFF7EEFCC6
:1015400006460AE0286840F480202860F0E700BFE3
:10155000FFF7E4FC801B642873D828688003F7D564
:101560000CE0FFF7DBFC064605E000BFFFF7D6FC0A
:10157000801B6428F0D828688003F7D420789A4E1E
:1015800080074FF001094FF0000839D5686810F066
:101590000C0F07D06868C0F38100022809D1686881
:1015A000C00306D42868800714D52069012808D113
:1015B00010E02069B0B1C6F80090FFF7AFFC074615
:1015C00005E00AE1FFF7AAFCC01B0228C4D828687E
:1015D0008007F7D52868616920F0F80040EAC1006B
:1015E00028600DE0C6F80080FFF798FC074604E08D
:1015F000FFF794FCC01B022823D828688007F7D483
:10160000207800072CD57948A169D9B1C0F800909D
:10161000FFF784FC074604E0FFF780FCC01B0228AC
:101620000FD8686A8007F7D571484FF4FA510068FF
:10163000B0FBF1F0009000BF0098411E0091FAD27B
:101640000EE080E0C0F80080FFF768FC074604E089
:10165000FFF764FCC01B022875D8686A8007F7D4BE
:101660002078400760D5E8690027C00008D4E86901
:1016700040F08050E861E869012700F08050009058
:101680005C480168C90513D40168834641F4807140
:101690000160FFF743FC824606E000BFFFF73EFC17
:1016A000A0EB0A0064284ED8DBF80000C005F5D591
:1016B000E06801280AD008B1052813D0286A20F074
:1016C00001002862286A20F0040002E0286A40F045
:1016D00001002862E06841F2883B98B1FFF71EFCE8
:1016E00082460BE0286A40F004002862EEE700BF63
:1016F000FFF714FCA0EB0A0159455AD8286A800765
:10170000F6D50CE0FFF70AFC824605E0FFF706FC81
:10171000A0EB0A0159454CD8286A8007F6D41FB1BE
:10172000E86920F08050E861E06988B36968C1F336
:101730008101022944D00228C6F8608004D0FFF756
:10174000EDFB044638E034E0FFF7E8FB074604E031
:10175000FFF7E4FBC01B02282BD828688001F7D4D0
:10176000206AB0F5803F05D16868A16820F4003098
:1017700008436860D4E908010843696821F47411DA
:1017800008436860C6F86090FFF7C8FB044606E0AF
:1017900025E000BFFFF7C2FB001B022809D828681C
:1017A0008001F7D51BE000BFFFF7B8FB001B022844
:1017B00002D90320BDE8F88F28688001F4D40EE038
:1017C0000128F7D06868226A00F48031914204D180
:1017D000616A00F47010884201D00120EAE700201D
:1017E000E8E700000010024000004242800442424C
:1017F0003C0000200070004070B5040009D0606A11
:10180000002540B125616561A56294F8510040B1A1
:101810000CE0012070BD6068B0F5827FF4D0E56116
:10182000F2E784F85050204600F040F8022084F897
:1018300051002068016821F040010160A0882189E1
:1018400000F4827001F404410843A18901F40061AD
:101850000843217C01F002010843217D01F00101D0
:101860000843218B01F400710843217F01F0380106
:10187000084394F8201001F080010843218D01F401
:101880000051084321680860A069042101EA104062
:10189000216848602068C16921F40061C161656503
:1018A000012084F85100002070BD000070B586B0A2
:1018B00000210091019102910391234A016823487C
:1018C00002240325914218D1816941F4805181613C
:1018D000816901F480510491816941F004018161C1
:1018E00080691B4E00F004000490B020009069460F
:1018F0003046FFF715FA40201CE0164A914220D1ED
:10190000C16941F48041C161C16901F48041049120
:10191000816941F00801816180690F4E00F0080083
:1019200004904FF4A040009069463046FFF7F8F964
:101930004FF42040CDE90004694603953046FFF797
:10194000EFF906B070BD0000003001400010024009
:101950000008014000380040000C0140704770470B
:1019600070B590F83C20012A26D0012480F83C4034
:10197000022280F83D2003685A689D6822F07006B4
:101980000A6832435A600D4B02689A4208D0B2F19D
:10199000804F05D00A4B9A4202D00A4B9A4204D19A
:1019A000496825F080031943916080F83D4000218B
:1019B00080F83C10084670BD022070BD002C01402C
:1019C000000400400008004010B5040003D094F863
:1019D0003D0010B107E0012010BD002084F83C005C
:1019E000204600F01FF8022084F83D00211D2068E9
:1019F00001F0BCF8012084F8460084F83E0084F829
:101A00003F0084F8400084F8410084F8420084F8E4
:101A1000430084F8440084F8450084F83D00002029
:101A200010BD000008B501681448B1F1804F14D012
:101A3000134A914220D1C16941F00201C161C069DC
:101A4000002200F00200009005211D20FFF716FC87
:101A50001D20BDE80840FFF703BCC16941F001014A
:101A6000C161C069002200F00100009005211C2026
:101A7000FFF704FC1C20ECE708BD0000001002404A
:101A80000004004090F83D10012901D0012070476A
:101A9000022180F83D100168CA6842F00102CA6064
:101AA00000680B49884208D0B0F1804F05D0094941
:101AB000884202D00849884204D1816801F00701B8
:101AC000062903D0016841F0010101600020704740
:101AD000002C0140000400400008004070B504469E
:101AE00090F83C000025012817D0012684F83C60BE
:101AF000022084F83D002068826822F0770222F4F8
:101B00007F4282600868502838D00DDC20284FD0F2
:101B100005DC90B3102811D14AE0022070BD3028B6
:101B200046D040280AD13BE060282FD070280DD045
:101B3000B0F5805F03D0B0F5005F12D0012584F8C6
:101B40003D60002084F83C00284670BDCB68D1E998
:101B50000121206801F046F82068816841F0770192
:101B600009E0CB68D1E90121206801F03BF8206849
:101B7000816841F480418160E1E719E0CA68496801
:101B8000206801F0E3F85021206806E0CA6849683F
:101B9000206801F0ECF86021206801F02DF8CEE714
:101BA000CA684968206801F0D1F840212068F4E74C
:101BB000226801461046F0E770472DE9F0410446DF
:101BC0000068C66805694FF00007A90713D5B1077B
:101BD00011D5F91E016101202077206880698007F6
:101BE000204602D0FFF7E8FF04E000F0A5F8204609
:101BF00000F037F92777680716D5700714D52168E4
:101C00006FF004000861022020772068806910F4DA
:101C1000407F204602D0FFF7CFFF04E000F08CF8B1
:101C2000204600F01EF92777280715D5300713D571
:101C300021686FF008000861042020772068C069DF
:101C40008007204602D0FFF7B7FF04E000F074F8E9
:101C5000204600F006F92777E80616D5F00614D5D9
:101C600021686FF010000861082020772068C069A3
:101C700010F4407F204602D0FFF79EFF04E000F002
:101C80005BF8204600F0EDF82777E80708D0F0076A
:101C900006D021686FF001000861204600F0E2F8EC
:101CA000280608D5300606D521686FF08000086147
:101CB0002046FFF753FE680608D5700606D5216852
:101CC0006FF040000861204600F0D6F8A8060AD55B
:101CD000B00608D521686FF0200008612046BDE8F5
:101CE000F041FFF73CBEBDE8F081000000B585B0D3
:101CF0000021009101910291039100680B498842F3
:101D000011D10B48816941F0080181618069694600
:101D100000F0080004900120009002200190039040
:101D20000448FEF7FDFF05B000BD000000040040C0
:101D300000100240000C0140704770B5044690F856
:101D40003C0000260D4601280FD0012084F83C00FD
:101D50006AB1042A1DD0082A2FD00C2A3FD00126B0
:101D6000002084F83C00304670BD022070BD206821
:101D700000F04AFF2068816941F008018161206814
:101D8000816921F004018161206881692A69114318
:101D900011E0206800F060FF2068816941F4006173
:101DA00081612068816921F4806181612068816995
:101DB0002A6941EA02218161D2E7206800F078FFB8
:101DC0002068C16941F00801C1612068C16921F042
:101DD0000401C1612068C1692A69114311E02068CA
:101DE00000F092FF2068C16941F40061C161206880
:101DF000C16921F48061C1612068C1692A6941EA31
:101E00000221C161ACE710B5040003D094F83D0095
:101E100010B107E0012010BD002084F83C002046EE
:101E200000F01EF8022084F83D00211D206800F01B
:101E30009DFE012084F8460084F83E0084F83F00AF
:101E400084F8400084F8410084F8420084F843009C
:101E500084F8440084F8450084F83D00002010BD5B
:101E60007047704700680349884201D1FFF774B991
:101E700070470000002C0140704738B5044690F8C8
:101E80004200202801D0022038BD51B14AB10120C2
:101E9000206300206063204601F0ECF8216B0129EB
:101EA00001D0012038BD21680A6849680091216885
:101EB0000C3151E8002F42F0100241E80023002BC2
:101EC000F5D138BD70B51E4C0546B2B02279214619
:101ED0001C48921D01F0B0F9C8216846FEF799F937
:101EE000227969461748921D00F0A1FD164928681D
:101EF000884219D19DF800005A2815D19DF801009B
:101F0000A52811D19DF802005A280DD19DF8040092
:101F10006E46001DC5B20DEB05004078D02805D0F7
:101F2000C8213046FEF775F932B070BD002404E0D8
:101F30003019407901F04EF9641CAC42F8DDF3E74A
:101F4000300A0020100800200038014010B5006859
:101F5000074988420AD107480749006801F028F973
:101F6000BDE8104040210448FEF753B910BD000001
:101F70000038014044000020300A0020F8B5016814
:101F800004460868CA684B6910F00F0F4FF000054F
:101F900059D003F0010602F49077374365D0C107AA
:101FA00005D0D10503D5616C41F0010161644107A1
:101FB00005D5D90703D0616C41F002016164810746
:101FC00005D5D90703D0616C41F0040161640107B4
:101FD00007D502F02001314303D0616C41F00801C4
:101FE0006164616C00293AD0800604D5900602D560
:101FF000204600F082FF20684069616CC0F38010C9
:10200000090700D460B3204600F042FF2068406911
:10201000400621D52068143050E8001F21F040010F
:1020200040E80012002AF5D1E06BA8B16D49416388
:10203000E06BFEF719FD002811D0E06B416B01B099
:10204000BDE8F040084783060FD593060DD520461E
:10205000BDE8F84000F051BF2046FFF777FFF8BD1C
:102060002046FFF773FF6564F8BD266B2023012E21
:102070007CD1C6067AD5D60678D50868486800901F
:1020800048694FF00206400640D5E16B0868406899
:102090000004000CE8D0A28D8242E5D9E085886971
:1020A00020282DD020680C3050E8001F21F48071CA
:1020B00040E80012002AF5D12068143050E8001FD3
:1020C00021F0010140E80012002AF5D12068143007
:1020D00050E8001F21F0400140E80012002AF5D12D
:1020E00084F84230256320680C3050E8001F21F04E
:1020F000100140E80012002AF5D1E06BFEF790FCD9
:102100006663A08DE18D401A81B22AE0A08DE18D39
:10211000401A81B2E08D0028A6D00029A4D0226800
:102120000C3252E8000F20F4907042E80007002FB4
:10213000F5D12068143050E8002F22F0010240E869
:102140000027002FF5D184F84230256320680C3039
:1021500050E8002F22F0100240E80023002BF5D1B8
:1021600066632046FFF7AEFEF8BDFFE705062BD5F8
:10217000150629D594F841002128F5D1A068B0F5BD
:10218000805F01D12069B0B1206A411C21622168C1
:1021900000784860E08C401E0004000CE084E3D12D
:1021A0002068C16821F08001C1602068C16841F0E9
:1021B0004001C160D8E7206A0088C0F30800486089
:1021C000206A801C2062E5E74006CDD55006CBD5BD
:1021D000CA68204622F04002CA6084F8413000F00C
:1021E000A5F9C1E7932D000870B5040004D094F858
:1021F0004100002510B106E0012070BD84F8405078
:10220000204600F023F8242084F841002068C168AB
:1022100021F40051C160204600F0D0FE2068016921
:1022200021F4904101612068416921F02A01416156
:102230002068C16841F40051C1606564202084F8C1
:10224000410084F842006563002070BD2DE9F04133
:1022500086B0002500950195029503950446DFF8A8
:1022600060C10368574802210322574F80264FF070
:10227000100863454DD1836943F4804383618369CA
:1022800003F480430493836943F00403836180690A
:10229000039200F0040004900802CDE900016946B1
:1022A0003846FEF73DFDF000CDE900050120029023
:1022B00069463846FEF734FD454F4448C7E90005F6
:1022C000C7E902563D617D61BD613846FD61FEF79B
:1022D000C1FC08B1FEF77CFBE7637C623C4F3B48E6
:1022E00044371438C7E902563D617D61BD61FD6127
:1022F000C7E900083846FEF7ADFC08B1FEF768FBF9
:10230000A7630022052125207C62FEF7B7FF252068
:1023100051E0DFF8C0C063454FD1C36943F40033D7
:10232000C361C36903F400330493836943F0040376
:1023300083618069039200F0040004900420CDE9D9
:10234000000169463846FEF7EBFC0820CDE90005A0
:10235000694638460295FEF7E3FC1D4F1B48883757
:102360001430C7E90005C7E902563D617D61BD61D2
:102370003846FD61FEF76EFC08B1FEF729FBE76306
:102380007C62134F1148CC372830C7E902563D61B3
:102390007D61BD61FD61C7E900083846FEF75AFC62
:1023A00008B1FEF715FBA7630022052126207C62F9
:1023B000FEF764FF2620FEF753FF06B0BDE8F0816C
:1023C000003801400010024000080140580002405F
:1023D00020060020004400402DE9F84F044690F804
:1023E00042009A4616460D46202802D00220BDE83B
:1023F000F88FB5B1AEB100206064222184F842109C
:102400002063FEF78BFDA6858146E685A0684FF424
:1024100080582027404501D1206920B12E46002553
:1024200029E00120E3E7002625E04B460022202199
:102430002046CDF800A000F065FE18B184F8427087
:102440000320D4E726B1A06840451AD038B108E08F
:1024500020684068C0F3080025F8020B08E02069F6
:1024600078B12068406800F07F0000BF06F8010BDB
:10247000E08D401EE085E08D0028D6D184F84270C2
:10248000B5E720684068F1E7704770472DE9F843E9
:10249000044690F84100984616460D46202802D082
:1024A0000220BDE8F88385B17EB100206064212060
:1024B00084F84100FEF732FDA6848146E684A068D8
:1024C0002027B0F5805F02D003E00120E9E7206912
:1024D00010B12E4600250EE000260CE0802120469B
:1024E00000F010FEA8B9C6B116F8010B21684860CB
:1024F000E08C401EE084E08C4B464FF00002CDF8AB
:1025000000800028EAD14FF04001204600F0FAFD9B
:1025100040B184F841700320C3E735F8020BC0F3E3
:102520000800E3E784F841700020BAE77047FEE74F
:10253000002804D0D0E90010814201D10120704769
:102540000020704700280AD001688268491CB1FB4E
:10255000F2F302FB13114068814201D10120704760
:1025600000207047074910B5054808600846FEF787
:1025700031FA002803D0BDE81040FEF729BA10BD9B
:102580000030024028000020154808B5416941F09C
:10259000010141614069002200F001000090052125
:1025A0000E20FEF76BFE0E20FEF75AFE00220521DC
:1025B0000F20FEF763FE0F20FEF752FE00220521DA
:1025C0001020FEF75BFE1020FEF74AFE00220521D8
:1025D0001120FEF753FEBDE808401120FEF740BE73
:1025E0000010024010B52D4BB6B031AC0FCB84E8D3
:1025F0000F00002131A802F0C9F8294C27491C22FC
:10260000E06110316846FDF7EBFD0021684602F0FD
:10261000D0F8224920601C222C3107A8FDF7E0FDEC
:10262000002107A802F0C5F81C4960601C2248314F
:102630000EA8FDF7D5FD00210EA802F0BAF8174943
:10264000A0601C22643115A8FDF7CAFD002115A861
:1026500002F0AFF81149E0601C2280311CA8FDF7A0
:10266000BFFD00211CA802F0A4F80C4920611C2227
:102670009C3123A8FDF7B4FD002123A802F099F8AE
:10268000064960611C22B8312AA8FDF7A9FD002186
:102690002AA802F08EF8A06136B010BDD0730008F1
:1026A000080000202DE9F04385B00025344800954E
:1026B000019502950395816941F01001816181695D
:1026C00001F010010491816941F02001816181696B
:1026D00001F020010491816941F004018161816967
:1026E00001F004010491816941F008018161806970
:1026F000244F00F008004FF480440490002221464B
:102700003846FEF705FCDFF880900022022148469B
:10271000FEF7FEFBDFF87480A6110022314640462A
:10272000FEF7F6FB009401240194029469463846B2
:102730000394FEF7F5FA0220CDE9000402946946FD
:1027400048460394FEF7ECFACDE90064029469462A
:1027500040460394FEF7E4FAE003CDE9000569463C
:1027600002944046FEF7DCFAF820CDE90005694600
:1027700002944846FEF7D4FA05B0BDE8F0830000A5
:102780000010024000100140000C01400008014010
:102790000D4810B50B4901600C49416000214FF410
:1027A00080428160C0E9031241618161C1610162BF
:1027B000FEF7BAFB002803D0BDE81040FEF708B9C9
:1027C00010BD000000540040A8030020A0860100B6
:1027D0000D4810B50B4901600C49416000214FF4D0
:1027E00080428160C0E9031241618161C16101627F
:1027F000FEF79AFB002803D0BDE81040FEF7E8B8CA
:1028000010BD000000580040FC030020A08601001D
:102810000E4810B50C49016000214FF40062416080
:10282000C0E902120161416181610162416281621C
:102830000A21C162FEF7E0FF002803D0BDE8104086
:10284000FEF7C6B810BD0000003001405004002063
:102850000E4810B50C4901604FF4827141600021AF
:102860008160C160016141618161C1610162416258
:1028700081620A21C162FEF7BFFF002803D0BDE8D4
:102880001040FEF7A5B810BD00380040A804002095
:1028900010B586B000241748009401940294039464
:1028A00004944FF0804105940160C721C0E90114F0
:1028B00041F61F41C0E9031480218161FFF784F8CC
:1028C00008B1FEF785F84FF480500090694609483A
:1028D000FFF704F908B1FEF77BF8049404A9054852
:1028E0000594FFF73DF8002801D0FEF771F806B017
:1028F00010BD00000005002010B58EB00024079424
:10290000089409940A940B941C2168460C94FDF7D2
:1029100080FC1E481C49C0E900144FF6FF71C0E955
:10292000024104618461FFF74FF808B1FEF750F8E7
:102930004FF48050079007A91448FFF7CFF808B16B
:10294000FEF746F81148FFF75EFA08B1FEF740F8C7
:102950000B940BA90D480C94FFF702F808B1FEF791
:1029600037F86020CDE90004029408226946074840
:102970000494FFF7E2F908B1FEF72AF80348FFF7DD
:10298000B5F90EB010BD000000040040480500205D
:102990000C4810B50A4901604FF4165141600021FE
:1029A00081600C22C160C0E904128161C161FFF73E
:1029B0001BFC002803D0BDE81040FEF709B810BD8D
:1029C00000380140900500200C4810B50A4901600C
:1029D0004FF416514160002181600C22C160C0E9B2
:1029E00004128161C161FFF7FFFB002803D0BDE83D
:1029F0001040FDF7EDBF10BD00440040D805002099
:102A0000FEE7FEE700B50B4602000FD0FFF790FD92
:102A100000280BD15168D068405C1870D2E90101E0
:102A2000401CB0FBF1F301FB1300506000BDF0B59A
:102A300015460E46070008D0002404E03119384638
:102A4000FFF7E0FF641CAC42F8D3F0BD1CB50120D9
:102A500003F01CFF0E494FF4007208600E480D4948
:102A600081660E4941660E49C1660E49016700F153
:102A7000740102F0E7FD0021881ECDE90001064B3C
:102A80004FF4807208A10A4804F046FA1CBD000009
:102A900044010020F9610008F8200020C16100080D
:102AA000A9610008E16100087368656C6C000000B2
:102AB0008D5F0008012001F05DFEFBE710B550209E
:102AC00080F31188BFF34F8FBFF36F8F04F096FA36
:102AD00018B104494FF080500860002080F311883D
:102AE00010BD000004ED00E030B58FB0282168462D
:102AF000FDF78FFB14210AA8FDF78BFB01210804C9
:102B0000CDE900100024029402250491CDE907507C
:102B10004FF4E01009906846FEF7DEFC08B172B68B
:102B2000FEE70F20CDE90A054FF48060CDE90C40A7
:102B300002210AA80E94FEF7D3FB002801D072B63A
:102B4000FEE70FB030BD70470148FFF736B8000010
:102B5000300700200148FFF730B8000000050020D2
:102B60000148FFF72AB8000048050020F0B50268C8
:102B7000194B1A4C1A4D4FF08047984205D0B84275
:102B800003D0A04201D0A84203D122F070064A68C7
:102B90003243984205D0B84203D0A04201D0A842A7
:102BA00003D122F44074CA6822434C6922F08002A7
:102BB000224302608A68C2620A688262984201D136
:102BC00009690163012141610169C90703D00169F4
:102BD00021F001010161F0BD002C01400004004022
:102BE0000008004010B5846842EA032224F47F44C0
:102BF0000A432243826010BD826822F070020A43B9
:102C000042F007018160704730B5036A026A22F022
:102C1000010202624268846924F073050C682C4347
:102C200023F002058B682B430A4DA8420BD123F0F9
:102C30000805CB6822F440722B434D6923F004034E
:102C400015438A692A43426084614968416303628B
:102C500030BD0000002C014030B5026A036A23F049
:102C600010030362436884690D6824F4E64444EA6F
:102C700005248D6822F0200242EA05120B4DA8427D
:102C80000ED1CD6822F0800242EA05124D6923F48C
:102C9000406343EA85038D6922F0400243EA8503DD
:102CA0004360846149688163026230BD002C014049
:102CB00030B5036A026A22F4807202624268C46913
:102CC00023F4007324F073050C682C438D6843EAE9
:102CD00005230C4DA8420ED1CD6823F4006343EACE
:102CE00005234D6922F4405242EA05128D6923F40E
:102CF000806342EA05124260C4614968C1630362AD
:102D000030BD0000002C014030B5046A026A22F494
:102D1000805202624268C3690D6823F4E64343EAC5
:102D200005238D6824F4005444EA0534064DA84276
:102D300004D14D6922F4804242EA85124260C361A7
:102D400049680164046230BD002C014010B5036A7B
:102D5000046A24F001040462846924F0F00444EA63
:102D6000021423F00A020A438461026210BD10B506
:102D7000036A046A24F010040462846923F0A00347
:102D800024F4704444EA023243EA01118261016290
:102D900010BD10B5406A0021C185C184FFF7D6F887
:102DA00010BD70B5446A2068406994F84110C0F3C2
:102DB000C0100025212904D118B1E584204600F077
:102DC0008EF82068406994F84210C0F380102229E0
:102DD00004D118B1E585204600F05AF8606C40F047
:102DE000100060642046FFF7B1F870BD10B50146D1
:102DF000406A096809684FF0000289062ED4C2852E
:102E000001680C3151E8003F23F4807341E800343D
:102E1000002CF5D10168143151E8003F23F0010383
:102E200041E80034002CF5D10168143151E8003F2D
:102E300023F0400341E80034002CF5D1202180F834
:102E40004210016B012909D101680C3151E8003FA2
:102E500023F0100341E80034002CF5D14263016BEC
:102E6000012902D0FFF710FB10BD818DFFF72AF872
:102E700010BD10B5406A01214163016B012902D0E8
:102E8000FFF703FB10BD818D4908FFF71BF810BD4C
:102E900001680C3151E8002F22F4907241E80023C0
:102EA000002BF5D10168143151E8002F22F0010206
:102EB00041E80023002BF5D1016B012909D10168FC
:102EC0000C3151E8002F22F0100241E80023002BC2
:102ED000F5D1202180F8421000210163704701687C
:102EE0000C3151E8002F22F0C00241E80023002BF2
:102EF000F5D1202180F84110704708B590F84210B4
:102F0000222901D0022008BD82684FF480539A42E2
:102F100001D1016921B1816A9A421BD04AB10AE00C
:102F20000268816A5268C2F308020A80816A891CB9
:102F300008E0026972B10268526802F07F020A700A
:102F4000816A491C8162C18D491E0904090CC18531
:102F500003D01BE002685268F1E70168CA6822F0FA
:102F60002002CA600168CA6822F48072CA600168DF
:102F70004A6922F001024A61202180F842100021B2
:102F80004163026B012A03D0FFF77EFA002008BDDF
:102F9000016301680C3151E8002F22F0100241E872
:102FA0000023002BF5D101680A68D20602D50A6811
:102FB00049680091818DFEF785FFE7E770B504460B
:102FC00000680169E26821F44051114301612169FF
:102FD000A0680843616908432168CA6841F20C632C
:102FE0009A430243CA6020684169A26921F4407192
:102FF000114341611E492068884202D1FEF736FA2A
:1030000001E0FEF723FA00EBC00101EB001260685B
:1030100064218000B2FBF0F3B3FBF1F36FF018060C
:103020007343B2FBF0F5B2FBF0F605EB83053223F8
:1030300003EB0515B5FBF1F5B6FBF1F605F0F00570
:1030400005EB0615B2FBF0F6B2FBF0F0B0FBF1F0C9
:103050006FF01802504306EB800003EB0010B0FB4A
:10306000F1F0216800F00F002844886070BD000076
:103070000038014038B5816204468285002013463D
:103080006064222284F84220E56B1B4AAA62E56B49
:103090001A4AEA62E56B1A4A2A63E26B50630A46EF
:1030A0002168E06B091DFDF703FE20680168406898
:1030B0000090206948B120680C3050E8001F41F4AE
:1030C000807140E80012002AF5D12068143050E8E1
:1030D000001F41F0010140E80012002AF5D12068EC
:1030E000143050E8001F41F0400140E80012002A6F
:1030F000F5D1002038BD0000ED2D0008732E00082A
:10310000A32D00082DE9F843984617460D460446BE
:10311000089E24E0701C22D0FDF700FFA0EB080001
:10312000B0421AD8CEB12068C168490717D5802DA2
:1031300015D0402D13D00168C94309070FD4016889
:103140000025406800902046FFF7A2FE082060643A
:1031500084F840500120BDE8F8830320FBE7206895
:10316000006835EA000004D00020B842D2D0002028
:10317000F1E70120F9E7000010B50448FEF7FEFE74
:10318000BDE810400249014800F012B89005002047
:10319000300A002010B50448FEF7F0FEBDE81040EC
:1031A0000249014800F004B8D8050020300A002088
:1031B00010B540220448FEF760FE0448006801682C
:1031C00021F00401016010BD9005002020060020C0
:1031D000FEE7000038B500218DF800100B491128DA
:1031E0000C680ED012280ED0132809D15FF003000E
:1031F0008DF8000000231A466946204603F09AFC29
:1032000038BD0120F4E70220F2E70000240000208E
:1032100030B50D4604000ED0FFF794F900280AD10E
:103220002168E06845542068A168401CB0FBF1F2B9
:1032300001FB1200206030BDF0B515460E460700B8
:1032400008D0002404E0315D3846FFF7E1FF641C3C
:10325000AC42F8D3F0BD00000FB4054B10B503A984
:10326000044A029800F01EF910BC5DF814FB00003F
:1032700085440008480100200FB47CB50C0009AD5E
:1032800001D0611E00E00021CDE90001064B6A4635
:103290002946089800F006F9002C02D0009A002177
:1032A00011707CBC5DF814FBAB3B00087CB50C00D6
:1032B0001D461646014601D0601E00E00020CDE903
:1032C0000010064B6A462946304600F0EBF8002C09
:1032D00002D0009A002111707CBD0000AB3B0008B9
:1032E0000907090E002804DB00F1E02080F8001433
:1032F000704700F00F0000F1E02080F8141D7047C7
:1033000002E008C8121F08C1002AFAD170477047AE
:10331000002001E001C1121F002AFBD1704700000C
:103320002DE9FF5F82B00021DDE90430020DDDF8F8
:1033300040B0034318D044F61050A2F2FF3242438B
:103340001514119801281FD0A5EB0B00401C5FEA53
:10335000000A4FF000064E4FDFF83891B046504655
:1033600015D5CAF1000413E0119801244AA30128DD
:1033700001D16FEA0B010298119AC0E90031C0E94E
:10338000024206B0BDE8F09FCBF10000DFE7044643
:103390000021404A491842EB0450CDE9001012E0E8
:1033A000E00707D032463B4640464946FDF715F94F
:1033B0008046894632463B4610461946FDF70DF9D0
:1033C00006460F466410002CEAD1DDE90401DDE970
:1033D0000023BAF1000F06DAFDF7FFF842464B462C
:1033E000FDF7FBF805E0FDF76AF942464B46FDF7AD
:1033F00066F904460E460022284BFDF7E7F903D88C
:103400004FF0FF30014607E00022254B20463146B1
:10341000FDF73CF8FDF7C2F9102409E0002C0ADBA7
:103420000A220023FCF7CAFF039B30321A55641EA0
:1034300050EA0102F2D1641C039AC4F1110314444E
:10344000119A012A03D0012208430DD10AE0084352
:1034500004D000204FF0110B119072E7A3EB0B0585
:103460006D1E0DE05B4504DD4FF0000205F1010526
:1034700004E003DA4FF00002A5F10105002AECD0C8
:1034800002981199C0E90231C0E9004579E70000CE
:10349000000014400000F03F300000000000F04346
:1034A0000000E03F2DE9FF4F95B09A46884606465A
:1034B0000025EEE1252877D100242746F94A01218D
:1034C000039400E0044316F8013F203B01FA03F0A7
:1034D0001042F7D130782A2811D06FF02F033078BE
:1034E000A0F13002092A16D8039A44F0020402EB34
:1034F000820203EB42021044761C0390EFE758F877
:10350000042B0392002A03DA504244F4005403903F
:1035100044F00204761C30782E2816D116F8010FDC
:1035200044F004042A280DD06FF02F023078A0F167
:103530003003092B09D807EB870302EB4303C718B5
:10354000761CF3E758F8047B761C30786C280FD093
:1035500006DC4C2817D068280DD06A2814D104E066
:10356000742810D07A280FD10DE044F400140AE03A
:1035700044F4801401E044F440147278824202D191
:1035800004F58014761C761C307866280BD013DC8A
:10359000582877D009DC002875D04528F6D0462871
:1035A000F4D047281AD193E118E0632835D0642875
:1035B00079D0652812D18BE1702873D008DC672898
:1035C000F1D069286FD06E280DD06F2806D1ACE0FD
:1035D00073282CD0752874D0782853D05246179968
:1035E00090476D1C54E1C4F30250022809D003280F
:1035F0000DD0D8F8001004280DD00D6008F1040893
:1036000046E1D8F80010EA17C1E90052F6E7D8F809
:1036100000100D80F2E70D70F0E718F8041B8DF82C
:10362000001000208DF80100EB46012003E058F85F
:1036300004BB4FF0FF3061074FF0000102D40DE0F2
:1036400009F101018946B9420FDA8145F8DB1BF81F
:1036500009100029F4D108E009F1010189468142ED
:10366000FADB1BF809100029F6D103985346A0EBAA
:10367000090721463846179A00F080FA284400EBE3
:10368000090507E044E008E10DE01BF8010B524694
:1036900017999047B9F10109F7D2534621463846A8
:1036A000179AF2E039E00A21C4F302524FF0000BFE
:1036B0000091022A06D058F8040BC117032A09D03A
:1036C0000AE023E008F1070020F00702F2E8020117
:1036D000904605E000B2C117042A01D140B2C117DB
:1036E000002906DA0A460021404261EB02012D2240
:1036F00002E0220504D52B228DF80420012203E0EC
:10370000E20701D02022F7E7914657E00A2100E0C6
:1037100010214FF0000B00910BE010214FF0000B37
:1037200044F004040827009103E008204FF0000B48
:103730000090C4F30252022A05D058F8040B00216D
:10374000032A08D008E008F1070020F00702F2E899
:103750000201904603E080B2042A00D1C0B24FF0CB
:10376000000922072AD53278702A07D0DDF800C078
:103770008CF0100C5CEA0B0C05D00EE040228DF8AA
:103780000420012208E050EA010306D030238DF81E
:1037900004308DF8052002229146009B83F0080337
:1037A00053EA0B030AD150EA010201D1620705D5A1
:1037B00030228DF804204FF001097F1E3278582AFC
:1037C00004D039A20C920CAA02920BE03BA2F9E7BA
:1037D0005B46009AFCF7F2FD0C9B9B5C029A521E22
:1037E0000292137050EA0102F2D1029804A9081A59
:1037F00000F1200B600702D524F4803400E001279B
:103800005F4502DDA7EB0B0000E0002000EB0B01A1
:10381000009003984944401A0390E00306D45346AD
:103820002146179A039800F0A9F90544002706E0FD
:1038300001A85246C05D179990476D1C7F1C4F45EB
:10384000F6DBE0030CD553462146179A039800F0A7
:1038500095F9054404E030205246179990476D1CB5
:103860000099481E00900029F5DC08E002980299B2
:1038700052460078491C0291179990476D1CBBF184
:103880000001ABF1010BF1DC5BE100F065F90544EF
:10389000761C307800287FF40DAE19B02846BDE8BC
:1038A000F08F0000092801003031323334353637CB
:1038B000383961626364656600000000303132337C
:1038C000343536373839414243444546000000001C
:1038D000600700D4062708F1070020F00700F0E891
:1038E0000223804603F0004C5FEA0C0001D097A051
:1038F00009E0200501D596A005E0E00701D095A0DC
:1039000001E0AFF24C001390307823F000436528BB
:103910000CD006DC452809D046281DD047287FD189
:103920003BE0662818D067287AD136E00021112FB5
:1039300001DB112000E0781CCDE9000104A90CA8EE
:10394000FFF7EEFCDDE90D010C9A4FF0000B07F1DB
:103950000109109200914EE04FF000400097CDE930
:10396000011004A90CA8FFF7DBFCDDE90D020C9B9C
:103970000F994FF0000B91461093009211B9791CEA
:1039800000EB0109B7EB090003D4C0F1FF3B07F1DD
:103990000109A9EB0700019042E0012F00DA01279D
:1039A0000021112F01DD112000E03846CDE9000192
:1039B00004A90CA8FFF7B4FCDDE90D010C9A0091F5
:1039C0004FF0000BB946109221070FD4009A4A45D8
:1039D00003DA914601E0A9F10109B9F1010F05DD12
:1039E000109AA9F10101515C3029F4D0B84202DAF1
:1039F00010F1040F03DA0121CDE9011010E00028D5
:103A000003DC8344A9EB000102E0411C494500DDD1
:103A10008946A0EB0B00401C01904FF00040029043
:103A2000200705D40198484502DB4FF0FF30019094
:103A300000208DF84B0002980DF14B07B0F1004FBC
:103A400025D002200C902B200D90029800280CDA33
:103A5000404202902D200D9007E00A210298FCF7C9
:103A600097FC3031029007F8011D0C99481E0C900C
:103A70000029F2DC02980028EFD1791E0D98087019
:103A8000307800F0200040F0450007F8020D11A842
:103A9000C01BC01D02901398007800B1012000EBFC
:103AA0000901019801EBE071029801440398401A62
:103AB000401E0390E00306D453462146179A03980C
:103AC00000F05CF805441398007818B15246179935
:103AD00090476D1CE00323D553462146179A03985F
:103AE00000F04CF805441BE0BBF1000F07DB009829
:103AF000584504DD1098179910F80B0001E017994C
:103B000030205246904701980BF1010B401E05F101
:103B10000105019004D12E205246179990476D1C43
:103B2000B9F10001A9F10109DEDC05E017F8010B8C
:103B30005246179990476D1C0299481E0290002921
:103B4000F4DC53462146179A03989EE62D000000A8
:103B50002B000000200000002DE9F0410446002564
:103B60001E461746880404D405E039462020B04795
:103B70006D1C641EF9D52846BDE8F0812DE9F041A1
:103B8000044600251E469046C80301D5302700E0B4
:103B90002027880404D505E041463846B0476D1C0F
:103BA000641EF9D52846BDE8F0814A68002A06D08F
:103BB0000A68531C0B6010704868401E48607047CC
:103BC00070B504460079A1688847E1784A0702D0B9
:103BD0002288521C2280B0EBD11F0CD04FF0005233
:103BE00002EBB1114FEAB161C1F3C202E170032AE5
:103BF00004D360F3C71121F03800E070E0780025AD
:103C000000F00701062972D2DFE801F0031D3D7BB9
:103C1000B199C0F38011B1EBD01FA07820F0F00073
:103C20000ED1A070E16809B1204688472580A078B0
:103C300020F00F00401CA070E0787CE0E07070BDC8
:103C40008030A07070BDC0F38011B1EBD01F09D0DF
:103C5000A07820F0F0001030A0702169A9B32046B0
:103C600088475FE02088C828ECD9A07820F0F000D1
:103C70005030A070216A09B120468847E07820F0D2
:103C80000700401DDAE7C0F38011B1EBD01F1DD152
:103C9000A07820F0F000A070E16809B120468847C4
:103CA000A078C143090706D04FF0805101EB3010D6
:103CB0004FEA3070A070616909B1204688472580BD
:103CC000E07820F00700C01CB8E72BE020883C28F3
:103CD000B8D9A07800F00F01012902D0022907D03D
:103CE00044E020F0F0003030A070A16905E03EE033
:103CF00020F0F0004030A070E16991B32046884781
:103D000034E0C0F38011B1EBD01F11D0A07820F0C7
:103D1000F0001030A070216909B120468847208842
:103D20003C2823D22580E07820F00700801C85E71E
:103D300021883C2986D920F00700401C7EE7C0F38B
:103D40008011B1EBD01FA07820F0F0000AD16030D4
:103D5000A070616A00293FF475AF2046BDE870404D
:103D6000084703E01030A0702169C6E7E07820F032
:103D7000070063E708B503F03BF9009000F006F890
:103D80000521684602F05EFBF8E70000054810B523
:103D9000046803E02046FFF713FFA46A002CF9D162
:103DA00010BD00004000002008B51D4C0020009010
:103DB000206800F043FD1B4D286800F03FFD1A4EBF
:103DC000306800F03BFD194F00226946386802F068
:103DD00011FF012820D10098012804D002280AD020
:103DE000032819D10FE0286800F028FD306800F0A2
:103DF00025FD20680EE0206800F020FD306800F00E
:103E00001DFD286806E0286800F018FD206800F015
:103E100015FD306800F0F8FC142002F0EDFAD3E74D
:103E20001C000020140000201800002024000020A6
:103E3000F0B585B0070007D11E484FF4F072036853
:103E400093B11D491DA09847214D0024052695F8E2
:103E5000F000C0B100F02CFA04EB4410411991F8C5
:103E60005100012812D017E01348CDE90302009257
:103E700012A118A3CDE9013103461FA225A10020FC
:103E800000F04CF8FEE705B03046F0BD1E22384683
:103E90003231FCF7F0F930B1641CE4B2052CDBD30D
:103EA00000F016FAEFE704EB4410284490F8316074
:103EB000F6E70000B40000207E75000874616720FA
:103EC000213D202828766F6964202A2930290000A6
:103ED000D01F002028257329206861732061737327
:103EE000657274206661696C656420617420257355
:103EF0003A256C642E0000002E2E5C656173796C8F
:103F00006F676765725C7372635C656C6F672E6365
:103F100000000000656C6F67000000000FB42DE921
:103F2000F04F06468BB08B460846FCF78FF900240D
:103F30000A940746A14609940594069407940894A8
:103F4000052E08D9B24840F23E220368002B7DD0EE
:103F5000B049B1A09847B74D95F8F100002876D048
:103F60002878B04273D35846FFF762FFB0426ED351
:103F7000691C5846FCF758F9002868D00DF1680A0A
:103F800000F096F9A84695F8F500A5F5807570B192
:103F90002946A9A2204600F0FDF904469C482919AB
:103FA0001C3050F82620204600F0F4F9044401218A
:103FB000304600F083FA40B195482919001D50F8A9
:103FC0002620204600F0E6F904440221304600F0A5
:103FD00075FAC8B129195A46204600F0DBF90444A5
:103FE0000F2F0BD8C7F10F01202205A8FCF70AF903
:103FF000291905AA204600F0CDF9044429198FA2F9
:10400000204600F0C7F904441C21304600F056FA5F
:1040100000284BD029198AA2204600F0BBF904449D
:104020000421304600F04AFAA8B100F075F90246C2
:104030002919204600F0AEF904441821304600F05A
:104040003DFA40B129197DA2204601E035E0DAE0D1
:1040500000F0A0F904440821304600F02FFA90B196
:1040600000F046F902462919204600F093F904446D
:104070001021304600F022FA28B129196FA22046FB
:1040800000F088F904441021304600F017FA38B1E6
:1040900000F032F902462919204600F07BF9044469
:1040A000291968A2204600F075F904442021304601
:1040B000169A00F063FAE0B90EE05648CDE9030223
:1040C000009255A160A3CDE90131034667A26EA11C
:1040D0000020FFF723FFFEE740213046179A00F04B
:1040E0004DFA30B980213046189A00F050FA002875
:1040F00056D0291966A2204600F04CF9044420212C
:104100003046169A00F03AFAD0B129192046169A8C
:1041100000F040F9044440213046179A00F02EFA8E
:1041200010B129195BA207E080213046189A00F0EF
:104130002EFA28B1291941A2204600F02BF9044497
:1041400080213046189A00F022FAB8B152A2052117
:1041500009A8189BFFF790F8291909AA204600F032
:1041600019F9044440213046179A00F007FA28B1A3
:10417000291932A2204600F00DF9044440213046AE
:10418000179A00F0FBF928B129192046179A00F078
:1041900001F90444291941A2204600F0FBF8044427
:1041A000C4F5807128195346199AFFF77FF8044423
:1041B0004FF48072944204D8002802DBA01D904284
:1041C00000D9FA2498F82000464640B1194905F86C
:1041D00004902031A1F59070FCF726F888B196F88C
:1041E000F50028B129192EA2204600F0D3F8044486
:1041F00029192DA2204600F0CDF801192B4800F016
:10420000A9F800F065F80BB0BDE8F00F5DF814FBFD
:10421000B4000020967500086C6576656C203C3D06
:1042200020454C4F475F4C564C5F564552424F53CA
:1042300045000000D01F00201B5B00002000000094
:104240005B0000005D200000282573292068617351
:1042500020617373657274206661696C65642061A6
:10426000742025733A256C642E0000002E2E5C65A8
:104270006173796C6F676765725C7372635C656CA0
:104280006F672E6300000000656C6F670000000020
:10429000280000003A000000256C6400290000009E
:1042A0001B5B306D000000000D0A0000D01E0020D6
:1042B00070B5064C012594F8F20020B100F052F8D8
:1042C00084F8F45070BD84F8F35070BDD01F002006
:1042D00070B5064C002594F8F20020B100F04EF8BD
:1042E00084F8F45070BD84F8F35070BDD01F0020E6
:1042F00000A070470000000010B502F06BFE01281E
:1043000005D002F061FEBDE8104000F09DBA01A0AA
:1043100010BD00000000000008B502F05BFE01289F
:104320000FD002F065FE4FF47A72B0FBF2F1B0FBF1
:10433000F2F302FB1101009103A210210448FEF7E1
:104340009BFF034808BD000025642E252E33640022
:10435000C8200020024601A0FEF77EBF252E2A734A
:104360002000000004480068002803D04FF0FF310F
:1043700002F0DCBC70470000E80000200448006840
:10438000002804D000231A46194602F023BB7047C8
:10439000E80000202DE9F043DFF88C90DFF88C80F6
:1043A00085B00D0006461446174606D1D8F80030F1
:1043B0002BB12C2249461EA098477CB12CE01CA2B0
:1043C00002922C20CDE903901AA3CDE90003164BED
:1043D00021A229A10020FFF7A1FDFEE7D8F80030B7
:1043E00023B12D22104926A0984715E024A202925D
:1043F0002D20CDE903900FA3CDE900030A4B16A2AF
:104400001DA10020FFF78AFDFEE73146761CFF293B
:1044100005D805F8010B641C20780028F5D105B0FB
:10442000E01BBDE8F0830000CE750008B40000205A
:104430006473740028257329206861732061737385
:10444000657274206661696C6564206174202573EF
:104450003A256C642E0000002E2E5C656173796C29
:104460006F676765725C7372635C656C6F675F75BD
:1044700074696C732E630000656C6F670000000048
:104480007372630013B54FF6FF7301226946024849
:10449000FDF7FCFF00981CBD9005002001A0FEF771
:1044A000DBBE00004C6574746572207368656C6CCB
:1044B000206973204F4B0D0A0000000030B585B015
:1044C0000D460446052807D9104840F2DF2203684C
:1044D00063B10F490FA09847154800EB8400D0F84E
:1044E000D800284000D0012005B030BD0848CDE9F3
:1044F0000302009207A10FA3CDE90131034616A2E2
:104500001CA10020FFF70AFDFEE70000B400002018
:10451000A27500086C6576656C203C3D20454C4FCB
:10452000475F4C564C5F564552424F534500000082
:10453000D01F0020282573292068617320617373C0
:10454000657274206661696C6564206174202573EE
:104550003A256C642E0000002E2E5C656173796C28
:104560006F676765725C7372635C656C6F672E63FF
:1045700000000000656C6F670000000010B522B1FC
:10458000FFF79CFF08B1012010BD002010BD10B541
:1045900022B1FFF793FF08B1012010BD002010BD2C
:1045A000EFF30580002800D0012070471CB50A4DAC
:1045B000D5264FF4807409A0CDE900600A4B0BA208
:1045C00012A10320FFF7AAFC21462846FCF798FC1D
:1045D000C82001F011FFEEE7000801406C6564316E
:1045E0005F72756E00000000CE7400082E2E5C41D4
:1045F00070706C69636174696F6E735C62757474FA
:104600006F6E5F6D6F746F722E630000427574740D
:104610006F6E5F6D6F74746F720000001CB50A4D91
:10462000E1264FF4804409A0CDE900600A4B0BA2BB
:1046300012A10320FFF772FC21462846FCF760FC1C
:10464000C82001F0D9FEEEE7001001406C6564322D
:104650005F72756E00000000D87400082E2E5C4159
:1046600070706C69636174696F6E735C6275747489
:104670006F6E5F6D6F746F722E630000427574749D
:104680006F6E5F6D6F74746F720000001CB5094C23
:10469000ED2502212046FCF733FC07A0CDE90050B0
:1046A000084B09A210A10320FFF738FCC82001F035
:1046B000A3FEEEE7000C01406C6564335F72756E1B
:1046C00000000000E27400082E2E5C4170706C69DE
:1046D000636174696F6E735C627574746F6E5F6D25
:1046E0006F746F722E630000427574746F6E5F6D2D
:1046F0006F74746F720000001CB5FCF735FDFEF797
:10470000F3F9FDF7CFFFFDF73FFFFEF741F8FEF7A6
:104710005FF8FEF77DF8FEF79BF8FEF7B9F8FEF7B5
:10472000EBF8FEF735F9FEF74FF9FDF71BFFFEF743
:104730008DF908491120CDE9000100234FF40072E2
:1047400005A1084802F0E8FBFDF74CFF00F019F85E
:10475000FEE7000000000020765461736B5573651E
:1047600072494600CD67000801460020842900D028
:10477000C81C704710B500B9012001F03DFE0020B3
:1047800010BD10B501F058FF002010BD38B5D0E9BC
:10479000011204683AB1C3682BB100200090204692
:1047A00002F0A0F838BD2046BDE83840002202F0F3
:1047B00078B87FB50D4604464169B0F9080081B16B
:1047C000A16971B1FFF7D0FFD4E905128DE80700A8
:1047D000D4E900102B46226902F0CBFB039004B011
:1047E00070BDFFF7C1FF03A9CDE90001208A2B4668
:1047F00082B2D4E9001002F08FFB012801D0002022
:10480000EDE70398EBE7000010B50446FFF7C8FE9C
:10481000002820460BD002F087FD012809D1064967
:1048200000070860BFF34F8FBFF36F8F01E001F007
:10483000C5FE002010BD000004ED00E010B501F041
:1048400031FF002010BD000008B90648006808B11B
:1048500034307047502080F31188BFF34F8FBFF37F
:104860006F8FFEE74C0000202DE9F041184C0F46F9
:104870000546E6682068001D01F0CCFC38B92068C8
:1048800090F82C1001208840216981432161681C27
:1048900007D137B12168BDE8F0410E48091D01F08C
:1048A000FDBC20683544B5424560216805D2A06B47
:1048B000BDE8F041091D01F0D9BC606B091D01F094
:1048C000D5FCA06A854200D2A562BDE8F081000057
:1048D0004C000020400D00202DE9F041054601F07C
:1048E000E9FC2D4CA068401CA06020682B4F10B143
:1048F000606930B32BE02560A068012827D100262D
:1049000006EB860007EB800001F0A2FC761C202E4F
:10491000F6D3234801F09CFC2148143001F098FCA8
:104920001F48283001F094FC1D483C3001F090FCF9
:104930001B48503001F08CFC194860631430A063B0
:1049400005E02068E96AC06A884200D82560606A8C
:10495000401C60626864E96A012022698840104353
:10496000206101EB810007EB8000291D01F096FC1E
:1049700001F0C0FC606900280CD02068E96AC06AB8
:10498000884207D207494FF080500860BFF34F8F2D
:10499000BFF36F8FBDE8F0814C000020700A00204B
:1049A000F00C002004ED00E030B4026C0B46002A4D
:1049B0000BD0C1681144C1608468A14201D3016871
:1049C000C16030BC1846FBF70BBC30BC70472DE90A
:1049D000F041856B174604460026026C82B1C7B1D0
:1049E000E068FBF7FDFBE168206C091AE1602268D2
:1049F000914202D2A168081AE060022F16D017E097
:104A00002068A8B9A06802F05FFB06460020A060FD
:104A10000EE06068FBF7E4FB216C606808446060AE
:104A2000A168884204D32068606001E005B16D1E72
:104A30006D1CA5633046BDE8F08110B5044690F8C2
:104A4000590058B101280CD002280FD0502080F313
:104A50001188BFF34F8FBFF36F8FFEE7206B01F01C
:104A60005DFC2046BDE8104001F058BC10BD0000C0
:104A70000F4841F27C11420705D0C01D0C4A20F0BE
:104A80000700821A891A0B4A00230144C2E9000375
:104A90000839183A21F0070111604B600B600B1ABE
:104AA000C0E9001393604FF00040536050617047BD
:104AB000540D0020A0000020144E154CA6F52F77B1
:104AC0004FF08058DFF84C9012E000BF01F0F2FB8D
:104AD000F068C568281D01F09DFBA068401EA0601D
:104AE0006068401E606001F005FC2846FFF7A5FFE6
:104AF00060680028EAD138680128F9D9C9F800802F
:104B0000BFF34F8FBFF36F8FF2E700002C0D002033
:104B10004C00002004ED00E0002807D00021816057
:104B200001600B460A46C16001F054BF70470000A7
:104B300070B51D46049C51B1C4F80020C4E90F01B2
:104B40000121204601F002FF84F84C5070BD246022
:104B5000F4E700002DE9F05F8846DDE90B94154687
:104B6000834691009A460A9EA522206BFBF74AFBDA
:104B70006FF00301206B01EB8501084420F007076B
:104B8000780707D0502080F31188BFF34F8FBFF311
:104B90006F8FFEE70025B8F1000F0FD05FF0000027
:104BA000221818F8001082F8341018F8001011B10B
:104BB000401C1028F4D384F8435001E084F83450AA
:104BC000202E00D31F26E662C4E91365201D01F0E4
:104BD0004AFB04F1180001F046FB2461C6F12000F5
:104BE0006462A061656584F858505246594638465B
:104BF00000F02AF92060B9F1000F01D0C9F8004097
:104C0000BDE8F09F30B5114900E011460A688242C4
:104C1000FBD34B685C18844203D140681844486059
:104C2000084643681C18944209D1084C183C246873
:104C3000A24209D052681A4442600A6812680260AF
:104C4000814200D0086030BD0460F9E7A000002078
:104C500010B5044601F02EFBA06B28B15FF00004F4
:104C600001F048FB204610BD0124F9E70648416BDE
:104C7000096829B1416BC968C96849688162704790
:104C80004FF0FF31FAE700004C0000200848406870
:104C9000401C4FF0500080F3118804D0BFF34F8FB9
:104CA000BFF36F8FFEE7BFF34F8FBFF36F8FFEE74A
:104CB000A8000020002150B10A4B42699A420FD14E
:104CC000806AA3F1280290420AD040B108E0502047
:104CD00080F31188BFF34F8FBFF36F8FFEE7012181
:104CE00008467047400D00202DE9F041044601F0D0
:104CF000E1FA94F9455004F1240609E0606A48B1EC
:104D0000304602F073FA08B101F0EAFB6D1E6DB295
:104D1000002DF3DC4FF0FF3684F8456001F0EAFA2D
:104D200001F0C8FA94F9445004F1100709E0206931
:104D300048B1384602F05AFA08B101F0D1FB6D1EB5
:104D40006DB2002DF3DC84F84460BDE8F04101F061
:104D5000D1BA00002DE9F0410546002701F000FD21
:104D6000324E306808B9FFF783FE706905424ED1B4
:104D7000C5B3083568070ED005F00700C0F108007C
:104D80000544680707D0502080F31188BFF34F8F88
:104D9000BFF36F8FFEE72DB37068854237D8234885
:104DA000183001460C6801E020460C466168A942B3
:104DB00002D221680029F7D131688C4227D00768D8
:104DC0002168016060680837411B10290FD96019FC
:104DD000420708D0502080F31188BFF34F8FBFF3F4
:104DE0006F8FFEE713E041606560FFF70BFF6168BE
:104DF0007068401A7060B268904200D2B06070690A
:104E000001430020C4E90001F068401CF06002F09A
:104E100029FA780707D0502080F31188BFF34F8F0D
:104E2000BFF36F8FFEE73846BDE8F08188000020B1
:104E30000449086818B10868026D521C02650868C8
:104E4000704700004C00002010B5031F4FF0807425
:104E50001C601B1F21F001011960191F024B0B6020
:104E6000143940380A6010BD8D4C0008012100F053
:104E70004DB80B784BB14A7802F00F02082A04D0E3
:104E800002685AB11278134208D090F86000C00747
:104E900002D14878C00601D5002070474FF0FF309E
:104EA0007047000010B500F097FA002805D00349BC
:104EB000896BBDE8104001F065B910BDF00000201D
:104EC000F8B505468089E989401A04B2202607E032
:104ED0008DF80060AA6E012168469047641E24B2D6
:104EE000002CF5DC297B2846BDE8F84000F07AB8B4
:104EF00010B500F071FA002803D0BDE8104000F0B2
:104F000081BC10BD4FF0FF31AFF30080F8B504460F
:104F1000481C03D00023E28912B103E00123FAE721
:104F200001295DD0A089824201D14D1C58D00025B5
:104F3000824201D1012901D0184613E0521E401EC1
:104F4000E28180B2A08121690D542046BDE8F8407D
:104F5000012100F047B822691144421E465C401C02
:104F60008E5400B2A289E189521A8242F3DCA089F0
:104F7000401EA081082643B9E089401EE0818DF8DB
:104F80000060A26E012168469047A18920694554BE
:104F9000B4F90E5009E020690121405D8DF8000050
:104FA000A26E684690476D1C2DB2A089A842F2DC23
:104FB00020208DF80000A26E012168469047A0894C
:104FC000E189401A401C05B208E000BF8DF800607E
:104FD000A26E0121684690476D1E2DB2002DF5DCB2
:104FE000F8BD000070B50C46054603E003A1284655
:104FF00001F0C8F8641EE4B2F8D270BD08200800C1
:105000004FF0FF3100F09EBA10B5044600F006F8EC
:105010002046BDE81040012101F046B8F8B504462D
:10502000808900283CD021690025224E0D5494F837
:105030006000C00728D0204600F0D0FA0820009079
:10504000A189202304F11402206900F08DFE0004E0
:10505000000CE086E581A58122D017A1204601F051
:1050600091F800232046A26D616900F059FD01000E
:1050700004D02046BDE8F84000F0F4BC2046B169F9
:10508000BDE8F84001F07EB8206881682069FBF730
:10509000E4F830B1716B204601F074F8A581E58128
:1050A000F8BD94F8600040F0010084F860003168B9
:1050B000F1E70000F00000200D0A00000178272928
:1050C00006D0014600200A785C2A03D010467047BB
:1050D000411CF7E749786E290FD004DC3029F6D05F
:1050E000622904D105E0722905D0742907D0084649
:1050F0007047082070470D2070470A20704709202C
:10510000704700002DE9F0410746002300780A2689
:1051100001221D461C462D2808D0002038440021BD
:1051200090F800C0BCF1300F04D01FE04FF0FF3208
:105130000120F3E74178782907D0582905D0622962
:1051400005D0422903D0022110E003210EE0012105
:105150000CE000BF90F800C0BCF12E0F06D190F813
:1051600001C0BCF1000F01D0042111E010F801CB07
:10517000BCF1000FEED1012908D0022903D0032988
:1051800006D1102603E00826012301E002260223AF
:105190003B44501C02D0002003441FE00120FBE7E9
:1051A0002E2805D0A0F13007092F03D8F8B20FE060
:1051B000012412E0A0F16107052F01D8573804E05F
:1051C000A0F14107052F02D83738C0B200E0002017
:1051D00005FB060504EB840044005B1C18780028DE
:1051E000DED1042913D194B11046FBF7C3F806466B
:1051F0002046FBF7C8F804462846FBF7C4F82146CA
:10520000FBF77AF83146BDE8F041FBF743B805FB00
:1052100002F0BDE8F0812DE9F041044608781E4611
:1052200022B1242850D14A7822B94DE027280AD04B
:105230002D2803D0A0F13002092A0BD80846FFF729
:1052400061FF306033E04A78002AF3D00846FFF768
:1052500035FFF6E74FF00008242806D080B300277A
:105260000D460C46222811D01BE04A78002AF6D0C1
:1052700000232046491CA26D00F052FC010003D01F
:10528000204600F0BDF8DCE74046DAE76C1C254616
:1052900007E05C280ED0222813D0E8557F1CBFB24F
:1052A000641C20780028F4D105F8078035600020C0
:1052B000BDE8F0812046FFF701FFE855641CEDE7EB
:1052C00002E005F80780E9E74FF0FF30F0E72DE94D
:1052D000F04F8BB00C4683469A461546202103A812
:1052E000FAF797FFA0786E1E00F00F07B74200DCB8
:1052F000374600254FF0FF380DF10C090AE00AEBA4
:10530000850009EB8503416800225846FFF783FFBB
:10531000B0BB6D1CB542F2DB082F3DD2DFE807F0D1
:1053200004090D12181E2631A06880470BB0BDE895
:10533000F08FA16803988847F8E7DDE90301A268C8
:105340009047F3E703ADA36895E807009847EDE7BA
:1053500003ADA46895E80F00A047E7E7A4680798A5
:1053600003AD009095E80F00A047DFE7A468DDE9F2
:10537000070103ADCDE9000195E80F00A047D5E78F
:105380000AE007ABA46893E807008DE8070003ADC7
:1053900095E80F00A047C9E74046C7E7C0687047D7
:1053A00000B500210B4A30235354491CC9B20929C6
:1053B000FAD3417801F00F01012903D9072901D956
:1053C000082901D8406800BD4068024900F014FE79
:1053D000004800BDEC2000200849002051F82020A2
:1053E00032B192F86020920702D551F82000704740
:1053F000401C00B20528F1DB00207047D8200020B7
:105400004A78002002F00F02921E062A06D2DFE838
:1054100002F003060A0D0D0F88680068704788685F
:10542000B0F9000070478868007870478868704756
:105430008868416809B1006808470020704700008B
:105440002DE9F05F5FEA0109044662D0E16E204673
:105450008847A06B1825002710F47F4F03D0002544
:105460006FF0FF070AE010F47F0F02D008252A4FE3
:1054700004E0000E02D010254FF07F470026B24610
:10548000D4F8588033E000BF08EB061B9BF80100FE
:1054900000F00F00092828D159462046FFF7E9FC03
:1054A00018BBDBF80400A26B00EA070191421CD193
:1054B000FF2101FA05F3184009FA05F3984214D1C7
:1054C0001A434FF00009A26335B1A5F10802DBF8D9
:1054D00004009140084208D108EB0610816809B128
:1054E00020468847C4F838A00EE0761C36B2B4F8DF
:1054F0005C00B042C8DCB9F1000F05D04946204637
:10550000C4F838A000F096FA2046216FBDE8F05F9D
:105510000847BDE8F09F00000000FFFF10B50B46F4
:105520000446FFF759FF00280BD0012C05D008DDF9
:105530005968BDE8104000F08BBDBDE8104000F098
:1055400061B910BD70B500250446002918DDB4F915
:105550005430A3F10100A4F85400B4F85010B4F88A
:105560005200814201D90A4600E00246524293426B
:1055700012DC814200D908464042A4F854000BE0F6
:1055800009DAB4F85400401C00B2A4F85400002812
:1055900002DDA4F8545070BD2046FFF791FCB4F929
:1055A0005400C0B1B4F8521008440521401D90FBCE
:1055B000F1F201FB120004EB8000C16B206900F0E6
:1055C0005BFCA0810028E6D0E08120462169BDE88F
:1055D000704000F0D7BDA581E58170BD70B5002594
:1055E0000446A0F85450B0F8500058B1B4F8520036
:1055F000216900B9052004EB8000806BFAF72DFECD
:1056000000281ED0B4F85200216904EB8000C06B62
:1056100000F032FC20B1B4F85200401CA4F8520053
:10562000B4F85000401C80B2A4F85000052802D9FC
:105630000520A4F85000B4F85200052801D3A4F8BE
:10564000525070BD10B504460020A081E0810B4689
:10565000206094F8601041F0010184F86010062188
:10566000B2FBF1F12361A186A4F85400A4F8500024
:10567000A4F85200A28E411C02FB013204EB800010
:10568000C26308B20528F5DB11481249A065081A63
:105690000009A4F85C001049002000BF51F8202048
:1056A0009AB1401C00B20528F8DB00230BA120466C
:1056B000A26D00F035FA0146204600F069FA204656
:1056C000BDE81040012100F0EFBC41F82040ECE7BC
:1056D000347A0008747B0008D82000206C6574744C
:1056E00065720000F8B504468089A28E521E904271
:1056F0000EDB36484168204600F044FD012120467B
:1057000000F0D2FC20462169BDE8F84000F03ABD27
:10571000E2890023824217D1256900F10102A281AA
:105720002954A28920698354E08900F10100E081B5
:1057300094F86000C00700D12A218DF80010A26EF5
:10574000012168469047F8BDFDD2801A00B206E0FC
:10575000E58922691544421EAE5C465510B2002808
:10576000F6DCE0892569421CE2812954A08921697F
:10577000401C80B2A0810B54E089401E05B20FE0AE
:1057800094F86000C00702D02069405D00E02A2044
:105790008DF80000A26E0121684690476D1C2DB265
:1057A000A089A842ECDCE18980B2401A05B2082643
:1057B00008E000BF8DF80060A26E012168469047A6
:1057C0006D1E2DB2002DF5DCF8BD0000F0000020AC
:1057D00010B5FFF701FE002803D0BDE8104000F02F
:1057E000B1B810BD38B50446C089002809D00820DA
:1057F0008DF80000A26E012168469047E089401EA6
:10580000E08138BD2DE9F0410646876D0F4881687B
:10581000304600F0B7FC002412E000BF07EB04158F
:10582000687800F00F00012808D829463046FFF7B5
:1058300020FB18B92946304600F00AF8641C24B24F
:10584000B6F85C00A042E9DCBDE8F081F000002081
:10585000F8B505460E460846FFF7A2FD0146284664
:1058600000F090FCC0F1160004B2002C00DC04240F
:105870005FF020078DF80070AA6E012168469047FE
:10588000641E24B2002CF5D1707800F00F01294875
:10589000012901D8016C0CE0072901D8416C08E00E
:1058A000082901D8816C04E0092901D8C16C00E005
:1058B000016D284600F066FC1FA1284600F062FC3E
:1058C00007240127307807FA04F1084201D0782034
:1058D00000E02D208DF80000AA6E01216846904757
:1058E000641E64B2002CEDDA13A1284600F04AFCD5
:1058F0003046FFF753FDAA6E03460021A2B102E035
:10590000491C89B2401C04781CB10D2C01D00A2C12
:10591000F6D1242906D9242118469047032107A04F
:10592000AA6E00E0184690472846BDE8F84004A15A
:1059300000F028BCF0000020202000002E2E2E00B9
:105940000D0A00002DE9F0410646876D10484169B7
:10595000304600F017FC002414E000BF07EB0415EC
:10596000687800F00F0008280AD9092808D82946C5
:105970003046FFF77EFA18B929463046FFF768FF30
:10598000641C24B2B6F85C00A042E7DCBDE8F081FC
:10599000F00000202DE9F0410646876D10480169AE
:1059A000304600F0EFFB002414E000BF07EB0415C5
:1059B000687800F00F0007280AD9082808D8294677
:1059C0003046FFF756FA18B929463046FFF740FF30
:1059D000641C24B2B6F85C00A042E7DCBDE8F081AC
:1059E000F00000202DE9F0410646876D1048C1689F
:1059F000304600F0C7FB002413E000BF07EB04159E
:105A0000687800F00F00801E052808D82946304627
:105A1000FFF72FFA18B929463046FFF719FF641C23
:105A200024B2B6F85C00A042E8DCBDE8F0810000DA
:105A3000F000002090F8602022F0040280F860203E
:105A4000FFF750BE08B5C1898289914209D2036926
:105A50004A1CC281595C8DF80010826E0121684693
:105A6000904708BD2DE9F047044690F860000F46C6
:105A700040F0020084F86000497800250A0704F12C
:105A800014090BD001F00F0001282FD0811E052929
:105A900037D83946204600F00FF938E00025A846EF
:105AA00017E000BF04EB850670690178222904D154
:105AB00080F800807069401C7061FAF7C7FB80B203
:105AC0007169401E0A5C222A01D101F800806D1C18
:105AD000ADB2E08EA842E5D8BA68E08E494690475C
